{
  "_format": "hh-sol-artifact-1",
  "contractName": "Lock",
  "sourceName": "contracts/Lock.sol",
  "abi": [
    {
      "inputs": [],
      "stateMutability": "payable",
      "type": "constructor"
    },
    {
      "anonymous": false,
      "inputs": [
        {
          "indexed": false,
          "internalType": "uint256",
          "name": "amount",
          "type": "uint256"
        },
        {
          "indexed": false,
          "internalType": "uint256",
          "name": "when",
          "type": "uint256"
        }
      ],
      "name": "UnLock",
      "type": "event"
    },
    {
      "anonymous": false,
      "inputs": [
        {
          "indexed": false,
          "internalType": "uint256",
          "name": "amount",
          "type": "uint256"
        },
        {
          "indexed": false,
          "internalType": "uint256",
          "name": "when",
          "type": "uint256"
        }
      ],
      "name": "Withdrawal",
      "type": "event"
    },
    {
      "inputs": [],
      "name": "add",
      "outputs": [],
      "stateMutability": "payable",
      "type": "function"
    },
    {
      "inputs": [],
      "name": "isLockAndAllowAdd",
      "outputs": [
        {
          "internalType": "bool",
          "name": "",
          "type": "bool"
        }
      ],
      "stateMutability": "view",
      "type": "function"
    },
    {
      "inputs": [],
      "name": "owner",
      "outputs": [
        {
          "internalType": "address payable",
          "name": "",
          "type": "address"
        }
      ],
      "stateMutability": "view",
      "type": "function"
    },
    {
      "inputs": [],
      "name": "unlock",
      "outputs": [],
      "stateMutability": "nonpayable",
      "type": "function"
    },
    {
      "inputs": [],
      "name": "withdraw",
      "outputs": [],
      "stateMutability": "nonpayable",
      "type": "function"
    }
  ],
  "bytecode": "0x608060405260016000806101000a81548160ff02191690831515021790555033600060016101000a81548173ffffffffffffffffffffffffffffffffffffffff021916908373ffffffffffffffffffffffffffffffffffffffff1602179055506106528061006e6000396000f3fe60806040526004361061004a5760003560e01c806320f0c2361461004f5780633ccfd60b1461007a5780634f2be91f146100915780638da5cb5b1461009b578063a69df4b5146100c6575b600080fd5b34801561005b57600080fd5b506100646100dd565b60405161007191906103a2565b60405180910390f35b34801561008657600080fd5b5061008f6100ee565b005b610099610270565b005b3480156100a757600080fd5b506100b06102bf565b6040516100bd91906103fe565b60405180910390f35b3480156100d257600080fd5b506100db6102e5565b005b60008054906101000a900460ff1681565b60008054906101000a900460ff161561013c576040517f08c379a000000000000000000000000000000000000000000000000000000000815260040161013390610476565b60405180910390fd5b600060019054906101000a900473ffffffffffffffffffffffffffffffffffffffff1673ffffffffffffffffffffffffffffffffffffffff163373ffffffffffffffffffffffffffffffffffffffff16146101cc576040517f08c379a00000000000000000000000000000000000000000000000000000000081526004016101c3906104e2565b60405180910390fd5b7fbf2ed60bd5b5965d685680c01195c9514e4382e28e3a5a2d2d5244bf59411b9347426040516101fd92919061051b565b60405180910390a1600060019054906101000a900473ffffffffffffffffffffffffffffffffffffffff1673ffffffffffffffffffffffffffffffffffffffff166108fc479081150290604051600060405180830381858888f1935050505015801561026d573d6000803e3d6000fd5b50565b60008054906101000a900460ff166102bd576040517f08c379a00000000000000000000000000000000000000000000000000000000081526004016102b490610590565b60405180910390fd5b565b600060019054906101000a900473ffffffffffffffffffffffffffffffffffffffff1681565b60008054906101000a900460ff16610332576040517f08c379a0000000000000000000000000000000000000000000000000000000008152600401610329906105fc565b60405180910390fd5b7f13b231f6d01067dad5c52c4f1f50dd44a59ae8f669f6c96437f3e4c3751c8681474260405161036392919061051b565b60405180910390a160008060006101000a81548160ff021916908315150217905550565b60008115159050919050565b61039c81610387565b82525050565b60006020820190506103b76000830184610393565b92915050565b600073ffffffffffffffffffffffffffffffffffffffff82169050919050565b60006103e8826103bd565b9050919050565b6103f8816103dd565b82525050565b600060208201905061041360008301846103ef565b92915050565b600082825260208201905092915050565b7f596f752063616e27742077697468647261772079657400000000000000000000600082015250565b6000610460601683610419565b915061046b8261042a565b602082019050919050565b6000602082019050818103600083015261048f81610453565b9050919050565b7f596f75206172656e277420746865206f776e6572000000000000000000000000600082015250565b60006104cc601483610419565b91506104d782610496565b602082019050919050565b600060208201905081810360008301526104fb816104bf565b9050919050565b6000819050919050565b61051581610502565b82525050565b6000604082019050610530600083018561050c565b61053d602083018461050c565b9392505050565b7f63616e206e6f7420616464212121000000000000000000000000000000000000600082015250565b600061057a600e83610419565b915061058582610544565b602082019050919050565b600060208201905081810360008301526105a98161056d565b9050919050565b7f6973206e6f74206c6f636b212121000000000000000000000000000000000000600082015250565b60006105e6600e83610419565b91506105f1826105b0565b602082019050919050565b60006020820190508181036000830152610615816105d9565b905091905056fea2646970667358221220a4af98eb920e913b2f19c89366661aa2c86d780fa6f6a0c3476cbc307c3d15be64736f6c63430008180033",
  "linkReferences": {},
  "deployedLinkReferences": {}
}